{
  "_format": "hh-sol-artifact-1",
  "contractName": "Lock",
  "sourceName": "contracts/Lock.sol",
  "abi": [
    {
      "inputs": [],
      "stateMutability": "nonpayable",
      "type": "constructor"
    },
    {
      "inputs": [],
      "name": "getAddress",
      "outputs": [
        {
          "internalType": "address",
          "name": "",
          "type": "address"
        }
      ],
      "stateMutability": "view",
      "type": "function"
    },
    {
      "inputs": [],
      "name": "owner",
      "outputs": [
        {
          "internalType": "address",
          "name": "",
          "type": "address"
        }
      ],
      "stateMutability": "view",
      "type": "function"
    }
  ],
  "bytecode": "0x608060405234801561001057600080fd5b50336000806101000a81548173ffffffffffffffffffffffffffffffffffffffff021916908373ffffffffffffffffffffffffffffffffffffffff160217905550610241806100606000396000f3fe608060405234801561001057600080fd5b50600436106100365760003560e01c806338cc48311461003b5780638da5cb5b14610059575b600080fd5b610043610077565b6040516100509190610173565b60405180910390f35b61006161010e565b60405161006e9190610173565b60405180910390f35b60008060009054906101000a900473ffffffffffffffffffffffffffffffffffffffff1673ffffffffffffffffffffffffffffffffffffffff163373ffffffffffffffffffffffffffffffffffffffff1614610108576040517f08c379a00000000000000000000000000000000000000000000000000000000081526004016100ff906101eb565b60405180910390fd5b33905090565b60008054906101000a900473ffffffffffffffffffffffffffffffffffffffff1681565b600073ffffffffffffffffffffffffffffffffffffffff82169050919050565b600061015d82610132565b9050919050565b61016d81610152565b82525050565b60006020820190506101886000830184610164565b92915050565b600082825260208201905092915050565b7f6e6f7420616e206f776e65720000000000000000000000000000000000000000600082015250565b60006101d5600c8361018e565b91506101e08261019f565b602082019050919050565b60006020820190508181036000830152610204816101c8565b905091905056fea2646970667358221220a08146f3a1de880196642b1f0bf8deb41b6d6e14f16b101d3555166360cd9d9c64736f6c63430008110033",
  "linkReferences": {},
  "deployedLinkReferences": {}
}